{
  "contractName": "FlipIt",
  "abi": [
    {
      "inputs": [
        {
          "internalType": "address",
          "name": "_currentAddress",
          "type": "address"
        }
      ],
      "payable": false,
      "stateMutability": "nonpayable",
      "type": "constructor"
    },
    {
      "payable": true,
      "stateMutability": "payable",
      "type": "fallback"
    },
    {
      "constant": true,
      "inputs": [],
      "name": "owner",
      "outputs": [
        {
          "internalType": "address",
          "name": "",
          "type": "address"
        }
      ],
      "payable": false,
      "stateMutability": "view",
      "type": "function"
    },
    {
      "constant": true,
      "inputs": [],
      "name": "getTargetAddress",
      "outputs": [
        {
          "internalType": "address",
          "name": "",
          "type": "address"
        }
      ],
      "payable": false,
      "stateMutability": "view",
      "type": "function"
    },
    {
      "constant": false,
      "inputs": [
        {
          "internalType": "address",
          "name": "_newAddress",
          "type": "address"
        }
      ],
      "name": "upgrade",
      "outputs": [],
      "payable": false,
      "stateMutability": "nonpayable",
      "type": "function"
    }
  ],
  "bytecode": "0x608060405234801561001057600080fd5b506040516106c93803806106c98339818101604052602081101561003357600080fd5b8101908080519060200190929190505050336000806101000a81548173ffffffffffffffffffffffffffffffffffffffff021916908373ffffffffffffffffffffffffffffffffffffffff16021790555080600860006101000a81548173ffffffffffffffffffffffffffffffffffffffff021916908373ffffffffffffffffffffffffffffffffffffffff1602179055506000600160405180807f616d6f756e745f706169645f6f75740000000000000000000000000000000000815250600f0190509081526020016040518091039020819055506000600160405180807f616d6f756e745f77616765726564000000000000000000000000000000000000815250600e0190509081526020016040518091039020819055506000600160405180807f7761676572735f6d616465000000000000000000000000000000000000000000815250600b0190509081526020016040518091039020819055506000600160405180807f7761676572735f776f6e00000000000000000000000000000000000000000000815250600a0190509081526020016040518091039020819055506000600160405180807f617661696c61626c655f62616c616e636500000000000000000000000000000081525060110190509081526020016040518091039020819055506002600160405180807f77696e5f6d756c7469706c796572000000000000000000000000000000000000815250600e0190509081526020016040518091039020819055506000600260405180807f68656164730000000000000000000000000000000000000000000000000000008152506005019050908152602001604051809103902060006101000a81548163ffffffff021916908363ffffffff1602179055506001600260405180807f7461696c730000000000000000000000000000000000000000000000000000008152506005019050908152602001604051809103902060006101000a81548163ffffffff021916908363ffffffff160217905550506103a0806103296000396000f3fe6080604052600436106100345760003560e01c80630900f010146101275780636f338a22146101785780638da5cb5b146101cf575b6000600860009054906101000a900473ffffffffffffffffffffffffffffffffffffffff169050600073ffffffffffffffffffffffffffffffffffffffff16600860009054906101000a900473ffffffffffffffffffffffffffffffffffffffff1673ffffffffffffffffffffffffffffffffffffffff1614156100b757600080fd5b60606000368080601f016020809104026020016040519081016040528093929190818152602001838380828437600081840152601f19601f820116905080830192505050505050509050600080825160208401855af43d604051816000823e8260008114610123578282f35b8282fd5b34801561013357600080fd5b506101766004803603602081101561014a57600080fd5b81019080803573ffffffffffffffffffffffffffffffffffffffff169060200190929190505050610226565b005b34801561018457600080fd5b5061018d6102c3565b604051808273ffffffffffffffffffffffffffffffffffffffff1673ffffffffffffffffffffffffffffffffffffffff16815260200191505060405180910390f35b3480156101db57600080fd5b506101e4610346565b604051808273ffffffffffffffffffffffffffffffffffffffff1673ffffffffffffffffffffffffffffffffffffffff16815260200191505060405180910390f35b6000809054906101000a900473ffffffffffffffffffffffffffffffffffffffff1673ffffffffffffffffffffffffffffffffffffffff163373ffffffffffffffffffffffffffffffffffffffff161461027f57600080fd5b80600860006101000a81548173ffffffffffffffffffffffffffffffffffffffff021916908373ffffffffffffffffffffffffffffffffffffffff16021790555050565b60008060009054906101000a900473ffffffffffffffffffffffffffffffffffffffff1673ffffffffffffffffffffffffffffffffffffffff163373ffffffffffffffffffffffffffffffffffffffff161461031e57600080fd5b600860009054906101000a900473ffffffffffffffffffffffffffffffffffffffff16905090565b6000809054906101000a900473ffffffffffffffffffffffffffffffffffffffff168156fea265627a7a72315820a5b6e232bd2bfe2c68399dc16a9ae95c953f410e35189e54e4a6b673bf700d6064736f6c63430005100032",
  "source": "pragma solidity >=0.5.16 <0.7.0;\r\n\r\nimport \"./Storage.sol\";\r\n\r\n/**\r\n* The FlipIt contract is a wrapper contract that wraps a target\r\n* contract, enabling the target to be versioned.\r\n*/\r\ncontract FlipIt is Storage {\r\n  // This address holds the address of the target contract.\r\n  address currentAddress;\r\n\r\n  constructor(address _currentAddress) public {\r\n    // Start with owner being the address that originally deploys the\r\n    // contract\r\n    owner = msg.sender;\r\n    // Initial target contract address\r\n    currentAddress = _currentAddress;\r\n\r\n    // Initialize game statistics\r\n    _uint256Storage[\"amount_paid_out\"] = 0;\r\n    _uint256Storage[\"amount_wagered\"] = 0;\r\n    _uint256Storage[\"wagers_made\"] = 0;\r\n    _uint256Storage[\"wagers_won\"] = 0;\r\n    _uint256Storage[\"available_balance\"] = 0;\r\n\r\n    // Define a value that indicates how much to pay out.\r\n    _uint256Storage[\"win_multiplyer\"] = 2;\r\n\r\n    // Initialize outcomes\r\n    _uint32Storage[\"heads\"] = 0;\r\n    _uint32Storage[\"tails\"] = 1;\r\n  }\r\n\r\n  /**\r\n  * Provides a means forthe contract owner to retrieve the current address.\r\n  * can be used in a deployment scenario to save off the current address\r\n  * so that changes could be rolled back to a previous version if needed.\r\n  */\r\n  function getTargetAddress () public view onlyOwner returns(address) {\r\n    return currentAddress;\r\n  }\r\n\r\n  /**\r\n  * This method provides a means to update the target contract\r\n  * so that the functionality of the contract is upgradable.\r\n  */\r\n  function upgrade(address _newAddress) public onlyOwner {\r\n    currentAddress = _newAddress;\r\n  }\r\n\r\n  /**\r\n  * FALLBACK FUNCTION. All other calls are forwarded to the target contract.\r\n  */\r\n  function () payable external {\r\n    address implementation = currentAddress;\r\n    require(currentAddress != address(0));\r\n    bytes memory data = msg.data;\r\n\r\n    //DELEGATECALL EVERY FUNCTION CALL\r\n    assembly {\r\n      let result := delegatecall(gas, implementation, add(data, 0x20), mload(data), 0, 0)\r\n      let size := returndatasize\r\n      let ptr := mload(0x40)\r\n      returndatacopy(ptr, 0, size)\r\n      switch result\r\n      case 0 {revert(ptr, size)}\r\n      default {return(ptr, size)}\r\n    }\r\n  }\r\n}\r\n",
  "sourcePath": "C:\\Projects\\ivan\\eth201\\proj_phase1\\sol\\contracts\\FlipIt.sol",
  "compiler": {
    "name": "solc",
    "version": "0.5.16+commit.9c3226ce.Emscripten.clang"
  },
  "schemaVersion": "3.0.23",
  "updatedAt": "2020-02-22T20:52:07.658Z",
  "networkType": "ethereum",
  "devdoc": {
    "methods": {}
  },
  "userdoc": {
    "methods": {
      "getTargetAddress()": {
        "notice": "Provides a means forthe contract owner to retrieve the current address. can be used in a deployment scenario to save off the current address so that changes could be rolled back to a previous version if needed."
      },
      "upgrade(address)": {
        "notice": "This method provides a means to update the target contract so that the functionality of the contract is upgradable."
      }
    },
    "notice": "The FlipIt contract is a wrapper contract that wraps a target contract, enabling the target to be versioned."
  }
}