{
  "contractName": "FlipIt_V1",
  "abi": [
    {
      "constant": true,
      "inputs": [],
      "name": "owner",
      "outputs": [
        {
          "internalType": "address",
          "name": "",
          "type": "address"
        }
      ],
      "payable": false,
      "stateMutability": "view",
      "type": "function"
    },
    {
      "constant": true,
      "inputs": [],
      "name": "getGameBalance",
      "outputs": [
        {
          "internalType": "uint256",
          "name": "",
          "type": "uint256"
        }
      ],
      "payable": false,
      "stateMutability": "view",
      "type": "function"
    },
    {
      "constant": true,
      "inputs": [],
      "name": "getGameStats",
      "outputs": [
        {
          "internalType": "uint256",
          "name": "",
          "type": "uint256"
        },
        {
          "internalType": "uint256",
          "name": "",
          "type": "uint256"
        },
        {
          "internalType": "uint256",
          "name": "",
          "type": "uint256"
        },
        {
          "internalType": "uint256",
          "name": "",
          "type": "uint256"
        },
        {
          "internalType": "uint256",
          "name": "",
          "type": "uint256"
        }
      ],
      "payable": false,
      "stateMutability": "view",
      "type": "function"
    },
    {
      "constant": true,
      "inputs": [
        {
          "internalType": "address",
          "name": "player",
          "type": "address"
        }
      ],
      "name": "getPlayerLastTossResult",
      "outputs": [
        {
          "internalType": "uint256",
          "name": "",
          "type": "uint256"
        },
        {
          "internalType": "uint256",
          "name": "",
          "type": "uint256"
        },
        {
          "internalType": "uint256",
          "name": "",
          "type": "uint256"
        },
        {
          "internalType": "bool",
          "name": "",
          "type": "bool"
        }
      ],
      "payable": false,
      "stateMutability": "view",
      "type": "function"
    },
    {
      "constant": true,
      "inputs": [],
      "name": "isAdmin",
      "outputs": [
        {
          "internalType": "bool",
          "name": "",
          "type": "bool"
        }
      ],
      "payable": false,
      "stateMutability": "view",
      "type": "function"
    },
    {
      "constant": false,
      "inputs": [],
      "name": "loadGame",
      "outputs": [],
      "payable": true,
      "stateMutability": "payable",
      "type": "function"
    },
    {
      "constant": false,
      "inputs": [
        {
          "internalType": "uint32",
          "name": "tossCall",
          "type": "uint32"
        }
      ],
      "name": "toss",
      "outputs": [],
      "payable": true,
      "stateMutability": "payable",
      "type": "function"
    },
    {
      "constant": false,
      "inputs": [
        {
          "internalType": "uint256",
          "name": "amt",
          "type": "uint256"
        }
      ],
      "name": "withdraw",
      "outputs": [],
      "payable": false,
      "stateMutability": "nonpayable",
      "type": "function"
    }
  ],
  "bytecode": "0x608060405234801561001057600080fd5b506112de806100206000396000f3fe60806040526004361061007b5760003560e01c80639f0db4351161004e5780639f0db4351461018d578063a8c3894b14610197578063b6db75a014610215578063c574d156146102445761007b565b80631aff30dd146100805780632e1a7d4d146100c75780634d200caa146101025780638da5cb5b14610136575b600080fd5b34801561008c57600080fd5b5061009561026f565b604051808681526020018581526020018481526020018381526020018281526020019550505050505060405180910390f35b3480156100d357600080fd5b50610100600480360360208110156100ea57600080fd5b81019080803590602001909291905050506103c3565b005b6101346004803603602081101561011857600080fd5b81019080803563ffffffff16906020019092919050505061058f565b005b34801561014257600080fd5b5061014b610cdd565b604051808273ffffffffffffffffffffffffffffffffffffffff1673ffffffffffffffffffffffffffffffffffffffff16815260200191505060405180910390f35b610195610d02565b005b3480156101a357600080fd5b506101e6600480360360208110156101ba57600080fd5b81019080803573ffffffffffffffffffffffffffffffffffffffff169060200190929190505050610dfd565b604051808581526020018481526020018381526020018215151515815260200194505050505060405180910390f35b34801561022157600080fd5b5061022a610f2b565b604051808215151515815260200191505060405180910390f35b34801561025057600080fd5b50610259610f82565b6040518082815260200191505060405180910390f35b6000806000806000600160405180807f7761676572735f6d616465000000000000000000000000000000000000000000815250600b019050908152602001604051809103902054600160405180807f7761676572735f776f6e00000000000000000000000000000000000000000000815250600a019050908152602001604051809103902054600160405180807f616d6f756e745f77616765726564000000000000000000000000000000000000815250600e019050908152602001604051809103902054600160405180807f616d6f756e745f706169645f6f75740000000000000000000000000000000000815250600f019050908152602001604051809103902054600160405180807f77696e5f6d756c7469706c796572000000000000000000000000000000000000815250600e019050908152602001604051809103902054945094509450945094509091929394565b6000809054906101000a900473ffffffffffffffffffffffffffffffffffffffff1673ffffffffffffffffffffffffffffffffffffffff163373ffffffffffffffffffffffffffffffffffffffff161461041c57600080fd5b600160405180807f617661696c61626c655f62616c616e6365000000000000000000000000000000815250601101905090815260200160405180910390205481106104b2576040517f08c379a000000000000000000000000000000000000000000000000000000000815260040180806020018281038252602b81526020018061123a602b913960400191505060405180910390fd5b61050381600160405180807f617661696c61626c655f62616c616e6365000000000000000000000000000000815250601101905090815260200160405180910390205461102190919063ffffffff16565b600160405180807f617661696c61626c655f62616c616e636500000000000000000000000000000081525060110190509081526020016040518091039020819055503373ffffffffffffffffffffffffffffffffffffffff166108fc829081150290604051600060405180830381858888f1935050505015801561058b573d6000803e3d6000fd5b5050565b600260405180807f68656164730000000000000000000000000000000000000000000000000000008152506005019050908152602001604051809103902060009054906101000a900463ffffffff1663ffffffff168163ffffffff1614806106505750600260405180807f7461696c730000000000000000000000000000000000000000000000000000008152506005019050908152602001604051809103902060009054906101000a900463ffffffff1663ffffffff168163ffffffff16145b6106a5576040517f08c379a00000000000000000000000000000000000000000000000000000000081526004018080602001828103825260248152602001806112866024913960400191505060405180910390fd5b600042905060003490506000610702600160405180807f77696e5f6d756c7469706c796572000000000000000000000000000000000000815250600e0190509081526020016040518091039020548361106b90919063ffffffff16565b9050600160405180807f617661696c61626c655f62616c616e6365000000000000000000000000000000815250601101905090815260200160405180910390205481106107b7576040517f08c379a00000000000000000000000000000000000000000000000000000000081526004018080602001828103825260138152602001807f576167657220697320746f6f206c617267652e0000000000000000000000000081525060200191505060405180910390fd5b61080860018060405180807f7761676572735f6d616465000000000000000000000000000000000000000000815250600b0190509081526020016040518091039020546110f190919063ffffffff16565b600160405180807f7761676572735f6d616465000000000000000000000000000000000000000000815250600b01905090815260200160405180910390208190555061089b82600160405180807f616d6f756e745f77616765726564000000000000000000000000000000000000815250600e0190509081526020016040518091039020546110f190919063ffffffff16565b600160405180807f616d6f756e745f77616765726564000000000000000000000000000000000000815250600e0190509081526020016040518091039020819055508363ffffffff16600284816108ee57fe5b061415610b9e5761094660018060405180807f7761676572735f776f6e00000000000000000000000000000000000000000000815250600a0190509081526020016040518091039020546110f190919063ffffffff16565b600160405180807f7761676572735f776f6e00000000000000000000000000000000000000000000815250600a0190509081526020016040518091039020819055506109d981600160405180807f616d6f756e745f706169645f6f75740000000000000000000000000000000000815250600f0190509081526020016040518091039020546110f190919063ffffffff16565b600160405180807f616d6f756e745f706169645f6f75740000000000000000000000000000000000815250600f019050908152602001604051809103902081905550610a6c81600160405180807f617661696c61626c655f62616c616e6365000000000000000000000000000000815250601101905090815260200160405180910390205461102190919063ffffffff16565b600160405180807f617661696c61626c655f62616c616e636500000000000000000000000000000081525060110190509081526020016040518091039020819055503373ffffffffffffffffffffffffffffffffffffffff166108fc829081150290604051600060405180830381858888f19350505050158015610af4573d6000803e3d6000fd5b50604051806080016040528083815260200182815260200184815260200160011515815250600760003373ffffffffffffffffffffffffffffffffffffffff1673ffffffffffffffffffffffffffffffffffffffff16815260200190815260200160002060008201518160000155602082015181600101556040820151816002015560608201518160030160006101000a81548160ff021916908315150217905550905050610cd7565b610bef34600160405180807f617661696c61626c655f62616c616e636500000000000000000000000000000081525060110190509081526020016040518091039020546110f190919063ffffffff16565b600160405180807f617661696c61626c655f62616c616e6365000000000000000000000000000000815250601101905090815260200160405180910390208190555060405180608001604052808381526020016000815260200184815260200160001515815250600760003373ffffffffffffffffffffffffffffffffffffffff1673ffffffffffffffffffffffffffffffffffffffff16815260200190815260200160002060008201518160000155602082015181600101556040820151816002015560608201518160030160006101000a81548160ff0219169083151502179055509050505b50505050565b6000809054906101000a900473ffffffffffffffffffffffffffffffffffffffff1681565b6000809054906101000a900473ffffffffffffffffffffffffffffffffffffffff1673ffffffffffffffffffffffffffffffffffffffff163373ffffffffffffffffffffffffffffffffffffffff1614610d5b57600080fd5b60003411610d6857600080fd5b610db934600160405180807f617661696c61626c655f62616c616e636500000000000000000000000000000081525060110190509081526020016040518091039020546110f190919063ffffffff16565b600160405180807f617661696c61626c655f62616c616e63650000000000000000000000000000008152506011019050908152602001604051809103902081905550565b600080600080600760008673ffffffffffffffffffffffffffffffffffffffff1673ffffffffffffffffffffffffffffffffffffffff16815260200190815260200160002060000154600760008773ffffffffffffffffffffffffffffffffffffffff1673ffffffffffffffffffffffffffffffffffffffff16815260200190815260200160002060010154600760008873ffffffffffffffffffffffffffffffffffffffff1673ffffffffffffffffffffffffffffffffffffffff16815260200190815260200160002060020154600760008973ffffffffffffffffffffffffffffffffffffffff1673ffffffffffffffffffffffffffffffffffffffff16815260200190815260200160002060030160009054906101000a900460ff1693509350935093509193509193565b60008060009054906101000a900473ffffffffffffffffffffffffffffffffffffffff1673ffffffffffffffffffffffffffffffffffffffff163373ffffffffffffffffffffffffffffffffffffffff1614905090565b60008060009054906101000a900473ffffffffffffffffffffffffffffffffffffffff1673ffffffffffffffffffffffffffffffffffffffff163373ffffffffffffffffffffffffffffffffffffffff1614610fdd57600080fd5b600160405180807f617661696c61626c655f62616c616e63650000000000000000000000000000008152506011019050908152602001604051809103902054905090565b600061106383836040518060400160405280601e81526020017f536166654d6174683a207375627472616374696f6e206f766572666c6f770000815250611179565b905092915050565b60008083141561107e57600090506110eb565b600082840290508284828161108f57fe5b04146110e6576040517f08c379a00000000000000000000000000000000000000000000000000000000081526004018080602001828103825260218152602001806112656021913960400191505060405180910390fd5b809150505b92915050565b60008082840190508381101561116f576040517f08c379a000000000000000000000000000000000000000000000000000000000815260040180806020018281038252601b8152602001807f536166654d6174683a206164646974696f6e206f766572666c6f77000000000081525060200191505060405180910390fd5b8091505092915050565b6000838311158290611226576040517f08c379a00000000000000000000000000000000000000000000000000000000081526004018080602001828103825283818151815260200191508051906020019080838360005b838110156111eb5780820151818401526020810190506111d0565b50505050905090810190601f1680156112185780820380516001836020036101000a031916815260200191505b509250505060405180910390fd5b506000838503905080915050939250505056fe43616e6e6f74207769746864726177206d6f7265207468616e20636f6e74726163742062616c616e63652e536166654d6174683a206d756c7469706c69636174696f6e206f766572666c6f7743616c6c206d75737420626520686561647320283029206f72207461696c73202831292ea265627a7a72315820bc27341b4734cdf79da5296d76b40660ab964c36cee7a80d15a15d567995277564736f6c63430005100032",
  "source": "pragma solidity >=0.5.16 <0.7.0;\r\n\r\nimport \"../node_modules/openzeppelin-solidity/contracts/math/SafeMath.sol\";\r\nimport \"./Storage.sol\";\r\n\r\n/**\r\n* Define a games based on flipping a coin. User calls heads or tails.\r\n* If the flip matches cusomter's wager, customer wins wager times defined\r\n* multiplier.\r\n*/\r\ncontract  FlipIt_V1 is Storage {\r\n  using SafeMath for uint256;\r\n\r\n  function getGameBalance() public view onlyOwner returns(uint256) {\r\n    return _uint256Storage[\"available_balance\"];\r\n  }\r\n\r\n  /**\r\n  * Retrieve game statistics.\r\n  */\r\n  function getGameStats() public view returns (uint256, uint256, uint256, uint256, uint256){\r\n    return (_uint256Storage[\"wagers_made\"],\r\n      _uint256Storage[\"wagers_won\"],\r\n      _uint256Storage[\"amount_wagered\"],\r\n      _uint256Storage[\"amount_paid_out\"],\r\n      _uint256Storage[\"win_multiplyer\"]);\r\n  }\r\n\r\n  /**\r\n  * Retruns the user's last flip outcome.\r\n  */\r\n  function getPlayerLastTossResult(address player) public view\r\n    returns (uint256, uint256, uint256, bool){\r\n    return (_playerWagers[player].amount,\r\n      _playerWagers[player].payout,\r\n      _playerWagers[player].timestamp,\r\n      _playerWagers[player].win);\r\n  }\r\n\r\n  function isAdmin() public view returns(bool) {\r\n    return msg.sender == owner;\r\n  }\r\n\r\n  function loadGame() public payable onlyOwner {\r\n      require (msg.value > 0);\r\n\r\n      _uint256Storage[\"available_balance\"] =\r\n        _uint256Storage[\"available_balance\"].add(msg.value);\r\n  }\r\n\r\n  /**\r\n  * Play a round of the game.\r\n  */\r\n  function toss(uint32 tossCall) public payable {\r\n    // Make sure that players calls either heads or tails.\r\n    require (tossCall == _uint32Storage[\"heads\"] ||\r\n             tossCall == _uint32Storage[\"tails\"], \"Call must be heads (0) or tails (1).\");\r\n\r\n    uint256 time = block.timestamp;\r\n    uint256 wager = msg.value;\r\n    uint256 winning = wager.mul(_uint256Storage[\"win_multiplyer\"]);\r\n\r\n    // Make sure the contract can payout before completing toss.\r\n    require(winning < _uint256Storage[\"available_balance\"], \"Wager is too large.\");\r\n\r\n    // Increment call stats\r\n    _uint256Storage[\"wagers_made\"] = _uint256Storage[\"wagers_made\"].add(1);\r\n    _uint256Storage[\"amount_wagered\"] = _uint256Storage[\"amount_wagered\"].add(wager);\r\n\r\n    // Player wins only if toss result equals their call.\r\n    if(time % 2 == tossCall) {\r\n      // Increment winning wager stats.\r\n      _uint256Storage[\"wagers_won\"] = _uint256Storage[\"wagers_won\"].add(1);\r\n      _uint256Storage[\"amount_paid_out\"] = _uint256Storage[\"amount_paid_out\"].add(winning);\r\n\r\n      _uint256Storage[\"available_balance\"] =\r\n        _uint256Storage[\"available_balance\"].sub(winning);\r\n\r\n      // Pay player\r\n      msg.sender.transfer(winning);\r\n\r\n      // Store player's latest wager for later lookup.\r\n      _playerWagers[msg.sender] = Wager (\r\n        wager,\r\n        winning,\r\n        time,\r\n        true\r\n      );\r\n    }\r\n    else {\r\n      _uint256Storage[\"available_balance\"] =\r\n        _uint256Storage[\"available_balance\"].add(msg.value);\r\n\r\n      _playerWagers[msg.sender] = Wager (\r\n        wager,\r\n        0,\r\n        time,\r\n        false\r\n      );\r\n    }\r\n  }\r\n\r\n  /**\r\n  * Provide a way for the owner to reap his / her rewards.\r\n  */\r\n  function withdraw (uint256 amt) public onlyOwner {\r\n      require (amt < _uint256Storage[\"available_balance\"], \"Cannot withdraw more than contract balance.\");\r\n\r\n      _uint256Storage[\"available_balance\"] = _uint256Storage[\"available_balance\"].sub(amt);\r\n\r\n      msg.sender.transfer(amt);\r\n  }\r\n\r\n  /**\r\n  * Generates a binary (0,1) random value.\r\n  */\r\n  function random () internal view returns (uint) {\r\n    return now % 2;\r\n  }\r\n}\r\n",
  "sourcePath": "C:\\Projects\\ivan\\eth201\\proj_phase1\\sol\\contracts\\FlipIt_V1.sol",
  "compiler": {
    "name": "solc",
    "version": "0.5.16+commit.9c3226ce.Emscripten.clang"
  },
  "schemaVersion": "3.0.23",
  "updatedAt": "2020-02-22T20:52:07.667Z",
  "networkType": "ethereum",
  "devdoc": {
    "methods": {}
  },
  "userdoc": {
    "methods": {
      "getGameStats()": {
        "notice": "Retrieve game statistics."
      },
      "getPlayerLastTossResult(address)": {
        "notice": "Retruns the user's last flip outcome."
      },
      "toss(uint32)": {
        "notice": "Play a round of the game."
      },
      "withdraw(uint256)": {
        "notice": "Provide a way for the owner to reap his / her rewards."
      }
    },
    "notice": "Define a games based on flipping a coin. User calls heads or tails. If the flip matches cusomter's wager, customer wins wager times defined multiplier."
  }
}