{
  "contractName": "Storage",
  "abi": [
    {
      "constant": true,
      "inputs": [],
      "name": "owner",
      "outputs": [
        {
          "internalType": "address",
          "name": "",
          "type": "address"
        }
      ],
      "payable": false,
      "stateMutability": "view",
      "type": "function"
    }
  ],
  "bytecode": "0x608060405234801561001057600080fd5b5060cf8061001f6000396000f3fe6080604052348015600f57600080fd5b506004361060285760003560e01c80638da5cb5b14602d575b600080fd5b60336075565b604051808273ffffffffffffffffffffffffffffffffffffffff1673ffffffffffffffffffffffffffffffffffffffff16815260200191505060405180910390f35b6000809054906101000a900473ffffffffffffffffffffffffffffffffffffffff168156fea265627a7a7231582040c1c67594486fc9baa7ecf48831d85dd178b243cd0362da600b126bbb11fe1064736f6c63430005100032",
  "source": "pragma solidity >=0.5.16 <0.7.0;\r\n\r\n/*\r\nProvide a seperate container for persisted data. This enables state to be\r\nmaintained even if processing contract is upgraded.\r\n*/\r\ncontract Storage {\r\n  address public owner;\r\n\r\n  modifier onlyOwner(){\r\n      require(msg.sender == owner);\r\n      _; //Continue execution\r\n  }\r\n\r\n  /*\r\n  Information about customer's last wager\r\n  */\r\n  struct Wager {\r\n    uint256 amount;\r\n    uint256 payout;\r\n    uint256 timestamp;\r\n    bool win;\r\n  }\r\n\r\n  /*\r\n  Define general use named variable holders\r\n  */\r\n  mapping (string => uint256) _uint256Storage;\r\n  mapping (string => uint32) _uint32Storage;\r\n  mapping (string => address) _addressStorage;\r\n  mapping (string => bool) _boolStorage;\r\n  mapping (string => string) _stringStorage;\r\n  mapping (string => bytes4) _bytesStorage;\r\n\r\n  /*\r\n  Define a list to hold latest bet based on Customer's address.\r\n  */\r\n  mapping (address => Wager) _playerWagers;\r\n\r\n}\r\n",
  "sourcePath": "C:\\Projects\\ivan\\eth201\\proj_phase1\\sol\\contracts\\Storage.sol",
  "compiler": {
    "name": "solc",
    "version": "0.5.16+commit.9c3226ce.Emscripten.clang"
  },
  "schemaVersion": "3.0.23",
  "updatedAt": "2020-02-22T20:52:04.987Z",
  "devdoc": {
    "methods": {}
  },
  "userdoc": {
    "methods": {}
  }
}